:020000040800F2
:100000002007002079010008A10F0008090F00084F
:1000100000000000000000000000000000000000E0
:10002000000000000000000000000000A70F000812
:100030000000000000000000A50F0008F90F0008F4
:100040008B010008000000008B0100088B010008F4
:100050008B0100088B0100088B0100088B01000850
:10006000000000008B0100088B0100088B010008D4
:100070008B0100088B0100088B01000800000000C4
:100080008B0100088B0100088B0100088B01000820
:100090008B0100088B0100088B0100088B01000810
:1000A0008B0100088B0100088B0100088B01000800
:1000B0008B0100088B01000800F002F800F04CF8FA
:1000C00012A030C8083824182D18AC4201D100F015
:1000D00043F80FCCA246AB460CA730CF2D1B083FF0
:1000E0003F197C427F1E54442D090426F441641EAE
:1000F000AC4201D300F030F80126334200D0FB1AA5
:100100003343984754465D46DFE70000A81D0000D2
:10011000C81D0000103A02D378C878C1FAD8520737
:1001200001D330C830C101D504680C6070470000AD
:10013000704700000023002400250026103A01D358
:1001400078C1FBD8520700D330C100D50B6070478F
:100150001FB51FBD10B510BD00F0E9F91146FFF73E
:10016000F7FF01F029FD00F001FA03B4FFF7F2FFF9
:1001700003BC00F007FA0000074880470748004723
:10018000FEE7FEE7FEE7FEE7FEE7FEE70448054977
:10019000054A064B7047000009100008B900000826
:1001A0002001002020070020200300202003002041
:1001B000002203098B422CD3030A8B4211D3002364
:1001C0009C464EE003460B433CD4002243088B423E
:1001D00031D303098B421CD3030A8B4201D39446CB
:1001E0003FE0C3098B4201D3CB01C01A52418309BE
:1001F0008B4201D38B01C01A524143098B4201D378
:100200004B01C01A524103098B4201D30B01C01AA2
:100210005241C3088B4201D3CB00C01A524183081C
:100220008B4201D38B00C01A524143088B4201D349
:100230004B00C01A5241411A00D2014652411046A9
:1002400070475DE0CA0F00D04942031000D340421E
:1002500053409C46002203098B422DD3030A8B4254
:1002600012D38901FC2212BA030A8B420CD38901F2
:1002700092118B4208D3890192118B4204D38901D8
:100280003AD0921100E08909C3098B4201D3CB0116
:10029000C01A524183098B4201D38B01C01A5241CB
:1002A00043098B4201D34B01C01A524103098B42CF
:1002B00001D30B01C01A5241C3088B4201D3CB00BA
:1002C000C01A524183088B4201D38B00C01A52419D
:1002D000D9D243088B4201D34B00C01A5241411A74
:1002E00000D201465241104663465B1001D34042A2
:1002F000002B00D54942704763465B1000D3404253
:1003000001B50549002802DC491C084000E0084608
:10031000C046C04602BD00BFFFFFFF7F7047704769
:1003200070470000F0B5FF252D04C609C209FF275C
:1003300004462E400137CB093E4348402A402B401B
:100340000746002A6BD0002B69D0AA4267D0AB4287
:1003500065D0002800DA32460125ED0529432C43FB
:1003600009022002090AD21A4B0C7F24E31A434CDB
:10037000000A7C44E35C7D242404121914145B00FD
:10038000A218884201D3521C00E0400049420C46AA
:100390005C4324115C43DB016415E318040A5C43ED
:1003A000C502200D0C4644436419250A5D4323030E
:1003B000EC0C0D46654300030019EB184C42A342B8
:1003C00001D35B18401CD4052018002B07D05B001C
:1003D000C91804D3401C002901D1400840003F2126
:1003E00089048A4209D3002A08DC1106090F04D0C7
:1003F000032149074018C00FC007F0BD012241008A
:10040000120689187F2252069142F6D20521490729
:10041000C84201D59010F0BDFF20C005F0BD002FEF
:1004200000DA32461648AA4207D2AB4205D2190278
:10043000090E17D0F80FC007F0BDFF2563002D0689
:10044000AB42F9D84900A942F6D8AB4201D1A94242
:10045000F2D0A94201D1002101E061004908D00594
:100460000843F0BD1102090EFBD0FF200243D00566
:10047000F0BD0A460146104654E70000B21A0000DB
:100480000000C07F10B501469E240002CA15A307D4
:10049000002A02D01843002A04DBA21A002A0CDD2D
:1004A000D04010BD1206120E01D140004008A21A21
:1004B00003D4D04040420028F3DDFF22480012065A
:1004C000904201D9002010BDC817C043584010BD4C
:1004D0001F22030C02D10F2200041CD0030E01D1F5
:1004E0000002083A030F01D10001121F830F01D14E
:1004F0008000921E002801DB4000521ED2055118D8
:10050000021251181922904004D3491C002801D12D
:100510004908490008467047C10FC90700D040424A
:10052000012292071143D3E701218907D0E77546DD
:1005300000F024F8AE46050069465346C008C000E6
:10054000854618B020B5FFF721FE60BCB6460026F0
:100550000027C0C5C0C5C0C5C0C5C0C5C0C5C0C5D1
:10056000C0C5403D490849008D46704710B5044656
:10057000C046C0462046FFF7F8FD10BD0048704752
:100580000800002001491820ABBEFEE7260002004B
:10059000704781B0EFF3108072B60090FFE7FEE77E
:1005A0008AB00990089100200790FFE7089800683A
:1005B0000799C840002800D147E108980068079AC9
:1005C00001219140084006900698002800D138E1AA
:1005D0000898406803210840012807D0FFE70898E1
:1005E00040680321084002282CD1FFE70998806861
:1005F00005900798400003218140059888430590A5
:100600000898C16807984000814005980843059004
:100610000598099988600998406805900798012114
:10062000814005988843059008984068102108404B
:100630000109079881400598084305900598099994
:100640004860FFE70898406803210840032816D057
:10065000FFE70998C0680590079840000321814092
:100660000598884305900898816807984000814064
:1006700005980843059005980999C860FFE7089810
:10068000406803210840022820D1FFE70998079914
:10069000C90889004018006A059007984007C00EF5
:1006A0000F218140059888430590089801690798B3
:1006B0004007C00E814005980843059005980999A8
:1006C000079AD208920089180862FFE70998006823
:1006D000059007984100032002468A4005999143FE
:1006E00005910899496801400798400081400598A4
:1006F0000843059005980999086008988079800753
:10070000002800D19CE007980321884350494058B5
:10071000059007988007C00E0F21814005988843F7
:100720000590099805210907884203D1FFE70020B9
:10073000049022E009984749884203D1FFE701204D
:10074000039017E009984449884203D1FFE702204B
:1007500002900CE00999414A03200523009391423D
:10076000019001D00098019001980290FFE7029853
:100770000390FFE703980490FFE704990798800728
:10078000C00E8140059808430590059807990322FB
:1007900091432F4A88503248006805900699059881
:1007A0008843059008988079C006002805D5FFE7A2
:1007B0000699059808430590FFE7059828490860C1
:1007C0002848006805900699059888430590089880
:1007D00080798006002805D5FFE70699059808432B
:1007E0000590FFE705981F4908601F4800680590BD
:1007F0000699059888430590089880798007002815
:1008000005D5FFE70699059808430590FFE7059889
:1008100015490860154800680590069905988843B1
:10082000059008988079C007002805D0FFE7069951
:10083000059808430590FFE705980C490860FFE715
:10084000FFE70798401C0790B0E60AB07047C04623
:10085000601802400004005000080050000C0050D6
:100860000018024004180240841802408018024018
:10087000014800687047C0461801002080B588B064
:10088000079004A90020087003A9087007988078D1
:100890008007002800D49DE002A900200870844849
:1008A0000068C000002810D4FFE7FFE78048026816
:1008B000012109070A43026000680840019001987D
:1008C000FFE702A901200870FFE77A4908680122C2
:1008D000120210430860FFF7CBFF0590FFE7754851
:1008E0000068C00500280CD4FFE7FFF7C1FF059999
:1008F000401A032804D3FFE704A90320087000E08E
:10090000EDE704A80078002853D1FFE76A480068A3
:1009100003210902084006900698002817D0FFE737
:10092000069807998969884211D0FFE762490868EB
:100930000322120290430690086801221204104319
:10094000086008689043086006980860FFE706A8FA
:100950000078C007002818D0FFE7FFF789FF05904F
:10096000FFE755480068800700280DD4FFE7FFF730
:100970007FFF0599401A5149884204D3FFE704A933
:100980000320087000E0ECE7FFE704A800780028E7
:100990000AD1FFE748490868032212029043079AE8
:1009A00092691043086003E0049803A90870FFE708
:1009B00003E0049803A90870FFE702A80078012863
:1009C00007D1FFE73A4908680122120790430860FF
:1009D000FFE7FFE707980078C007002809D0FFE786
:1009E0003749086803229043079A52681043086009
:1009F000FFE7079800788007002809D5FFE730490E
:100A000008680C229043079A926810430860FFE739
:100A100007980078800600280AD5FFE7284908686B
:100A2000032212039043079AD26810430860FFE73D
:100A3000079840784006002818D5FFE72049086845
:100A4000032292079043079A52691043086007985F
:100A5000406901218907884207D1FFE76A49086890
:100A60000122120410430860FFE7FFE7079840786F
:100A70000007002818D5FFE71149086803229203F0
:100A80009043079A12691043086007980069012192
:100A90008903884207D1FFE75B49086801221204F5
:100AA00010430860FFE7FFE703A8007808B080BDA7
:100AB0003C100240007000405C10024089130000AE
:100AC00054100240014800687047C04600000020F2
:100AD00080B582B0FFF7F6FF019000F017FA0146EB
:100AE0000198090B8A00034989581F221140C84008
:100AF00002B080BD681E000880B588B0414800681B
:100B00008006400F00280FD1FFE742480068072108
:100B1000C9020840C10A01208840039003993C485B
:100B2000FFF746FB029069E0FB4800683821084067
:100B3000082803D1FFE7354802905EE0F6480068D8
:100B40003821084010283CD1FFE72F4801680322D4
:100B5000114006910068702108400009401C049073
:100B600006980190022812D0FFE7019803280FD1C0
:100B7000FFE704992548FFF71BFB01462248006860
:100B80007F2212021040000A484307900EE0FFE760
:100B900004991F48FFF70CFB01461B4800687F22A1
:100BA00012021040000A48430790FFE71648006809
:100BB000400F401C059007980599FFF7F9FA02903D
:100BC0001AE0D548006838210840202804D1FFE702
:100BD0000120C00302900EE0CF4800683821084091
:100BE000182804D1FFE77D200002029002E00020D7
:100BF0000290FFE7FFE7FFE7FFE7FFE7029808B093
:100C000080BDC046081002400C10024000127A005D
:100C10000024F4000010024083B00190FFE7019827
:100C20008421405C012804D1FFE702A9022008705A
:100C30002BE00199842201208854FFE7FFE7019906
:100C4000882224208850019800680068009001984C
:100C50000368186801218843186000984907884391
:100C60000090019900204866009801990968086081
:100C7000019920208850FFE70199842200208854A0
:100C8000FFE702A900200870FFE702A8007803B080
:100C9000704780B586B004900391FFE704988421E3
:100CA000405C012804D1FFE705A90220087034E068
:100CB0000499842201208854FFE7FFE704998822E1
:100CC00001922420885004980068006802900498DB
:100CD00001680868012290430860049800688068F1
:100CE00007214906884303990843049909688860E5
:100CF000049800F08BF9019A029804990968086039
:100D0000049920208850FFE7049984220020885409
:100D1000FFE705A900200870FFE705A8007806B0E6
:100D200080BD80B586B004900391FFE704988421CC
:100D3000405C012804D1FFE705A90220087034E0D7
:100D40000499842201208854FFE7FFE70499882250
:100D5000019224208850049800680068029004984A
:100D60000168086801229043086004980068806860
:100D70000721490788430399084304990968886053
:100D8000049800F043F9019A0298049909680860F0
:100D9000049920208850FFE7049984220020885479
:100DA000FFE705A900200870FFE705A8007806B056
:100DB00080BD80B582B000900098002804D1FFE784
:100DC00001A9012008704AE000988069002801D03C
:100DD000FFE700E0FFE7009888214058002808D18D
:100DE000FFE70099842200208854009800F03CF826
:100DF000FFE700998822242088500098016808683D
:100E00000122904308600098806A002804D0FFE720
:100E1000009800F045F9FFE7009800F0FBFA012880
:100E200004D1FFE701A90120087018E000980168CB
:100E300048680922D2029043486000980168886897
:100E40002A229043886000980168086801221043B4
:100E50000860009800F0D2F901A90870FFE701A826
:100E6000007802B080BD000080B590B00F900020E7
:100E700000900E900D900C900B900A9009900890A5
:100E8000079006900590049003900F9800684349DE
:100E9000884233D1FFE7022003900020059003A889
:100EA000FFF7ECFC002803D0FFE7FFF772FBFFE73A
:100EB000FFE713480268012149040A430260006801
:100EC000084002900298FFE7FFE70E480268012100
:100ED0000A4302600068084001900198FFE70C2077
:100EE0000A9002200B9001200C9000210D910E9091
:100EF000052000070AA9FFF753FBFFE710B080BDEC
:100F00003C10024034100240FFE7FEE70248006850
:100F100007210903084070470810024080B582B0DD
:100F20001D4801901D490160E121490241600121F4
:100F3000090781600021C16001610C224261816169
:100F4000C161016241628162FFF733FF002803D073
:100F5000FFE7FFF71EFBFFE70F480021FFF7E1FE69
:100F6000002803D0FFE7FFF714FBFFE70A48002142
:100F7000FFF78FFE002803D0FFE7FFF70AFBFFE72C
:100F80000548FFF749FE002803D0FFE7FFF701FB04
:100F9000FFE702B080BDC04668000020004400406A
:100FA000FFE7FEE77047704780B584B00290029873
:100FB000401E000E002803D0FFE70120039011E03F
:100FC0000298401E0949086000200190C043032197
:100FD00000F05CFC019806490860064A0721116090
:100FE0000390FFE7039804B080BDC04614E000E022
:100FF00018E000E010E000E002490888401C08808A
:101000007047C046140100207047000070B58AB0D8
:1010100009900998406E002808D1FFE709996A22D3
:101020000120885209996822885233E008A9019169
:101030000820087007A908700998006880680722CE
:1010400052061040400E06AA0292107009980068DD
:101050008068420F05A80270097802780E48049053
:10106000805C48430D490391895CFFF7A1F8019B1F
:10107000029A039904460498099D6A26AC531B788A
:101080001278805C5843895CFFF792F809996822CE
:101090008852FFE70AB070BD901E0008881E000845
:1010A00081B0009000982821405C000700280CD5F2
:1010B000FFE70098006840680121C9038843009950
:1010C0008A6B104309684860FFE700982821405C5C
:1010D000C00700280CD0FFE7009800684068012195
:1010E000490488430099CA6A104309684860FFE7C9
:1010F00000982821405C800700280CD5FFE7009865
:101100000068406801210904884300990A6B104374
:1011100009684860FFE700982821405C40070028E4
:101120000CD5FFE7009800684068012189048843D6
:1011300000994A6B104309684860FFE7009828212E
:10114000405CC00600280CD5FFE700980068806866
:101150000121090388430099CA6B1043096888601C
:10116000FFE700982821405C800600280CD5FFE7A7
:1011700000980068806801214903884300990A6C3F
:10118000104309688860FFE700982821405C40060A
:1011900000281DD5FFE70098006840680121090577
:1011A0008843009A536C1843126850600098406C52
:1011B00088420CD1FFE70098006840680321490588
:1011C000884300998A6C104309684860FFE7FFE78D
:1011D00000982821405C000600280CD5FFE7009805
:1011E000006840680121C90488430099CA6C104313
:1011F00009684860FFE701B07047000080B590B013
:1012000005900599902200208850FFF731FB04904B
:101210000598006800680007002832D5FFE70598A8
:10122000049B4D49009101214905002200F0AAFAD2
:10123000002825D0FFE7FFE7EFF310800990099819
:10124000039001200F900F9880F310880598016893
:10125000086880229043086003980E900E9880F3EF
:101260001088FFE70599882220208850FFE705991C
:10127000842200208854FFE706A90320087066E056
:10128000FFE70598006800684007002849D5FFE798
:101290000598049B3049009101218905002200F046
:1012A00071FA00283CD0FFE7FFE7EFF310800890C9
:1012B0000898029001200D900D9880F310880598F1
:1012C00001680868092252019043086002980C9056
:1012D0000C9880F31088FFE7FFE7EFF3108007908A
:1012E0000798019001220B920B9880F310880598C3
:1012F000016888689043886001980A900A9880F392
:101300001088FFE705998C2220208850FFE7059977
:10131000842200208854FFE706A90320087016E005
:10132000FFE7059988222020885005998C22885053
:1013300005990020C86605990867FFE7059984228A
:1013400000208854FFE706A900200870FFE706A8E0
:10135000007810B080BDC046FFFFFF018DB0039044
:10136000FFE7EFF3108006900698029001200C90A2
:101370000C9880F3108803980168086809225201CC
:101380009043086002980B900B9880F31088FFE759
:10139000FFE7EFF3108005900598019001200A9077
:1013A0000A9880F31088039801688868184A1040EA
:1013B000886001980990099880F31088FFE70398E6
:1013C000C06E012818D1FFE7FFE7EFF3108004900B
:1013D0000498009001200890089880F310880398E2
:1013E00001680868102290430860009807900798E9
:1013F00080F31088FFE7FFE703998C2220208850B4
:1014000003990020C866039948670DB07047C0462D
:10141000FEFFFFEF80B58EB00D9008A90020087088
:101420000D9988680A6910434A691043C9690843DD
:101430000C900D9800680068C94908400C99084351
:101440000D99096808600D98006840680321090338
:1014500088430D99CA681043096848600D988069EF
:101460000C900D98016A0C9808430C900D98006838
:101470008068BC4908400C9908430D990968886048
:101480000D980068C06A0F2188430D994A6A10437D
:101490000968C862FFE70D980068B34988422AD1FD
:1014A000FFE7B548006803210840059003281DD8D0
:1014B0000598810001A040588746C046CD14000819
:1014C000DD140008D5140008E51400080AA900205E
:1014D00008700FE00AA9022008700BE00AA9042096
:1014E000087007E00AA90820087003E00AA9102084
:1014F0000870FFE75CE00D9800689C4988423CD189
:10150000FFE79D4800680C21084004900C282FD864
:101510000498810001A040588746C0465115000834
:101520007115000871150008711500086115000893
:10153000711500087115000871150008591500088B
:10154000711500087115000871150008691500086B
:101550000AA9002008700FE00AA9022008700BE019
:101560000AA90420087007E00AA90820087003E00F
:101570000AA910200870FFE719E00D9800687C495F
:10158000884204D1FFE70AA9002008700EE00D98F8
:1015900000687849884204D1FFE70AA90020087052
:1015A00003E00AA910200870FFE7FFE7FFE7FFE765
:1015B000FFE70D98C0690121C903884266D1FFE7A2
:1015C0000AA800780390082825D80398810001A074
:1015D00040588746F915000817160008011600083C
:1015E0001716000807160008171600081716000837
:1015F000171600080F160008FFF76AFA069010E0A9
:101600005E4806900DE0FFF777FA069009E00120AA
:10161000C003069005E00020069008A9012008708C
:10162000FFE70698002830D0FFE706980D99029151
:10163000496A4A005249895AFEF7BAFD02994000A8
:1016400049684A088018FEF7B3FD099009981028E8
:1016500016D3FFE709A84088002811D1FFE70999B0
:101660000F2081430BA8018009990E2211404A08DE
:101670000B991143018000880D990968C86003E047
:1016800008A901200870FFE7FFE759E00AA80078E1
:101690000190082825D80198810001A0405887466C
:1016A000C5160008E3160008CD160008E31600086A
:1016B000D3160008E3160008E3160008E316000836
:1016C000DB160008FFF704FA069010E02B4806909E
:1016D0000DE0FFF711FA069009E00120C003069023
:1016E00005E00020069008A901200870FFE7069891
:1016F000002824D0FFE706980D990091496A4A0016
:101700001F49895AFEF754FD009949684A08801814
:10171000FEF74EFD0990099810280BD3FFE709A8A2
:101720004088002806D1FFE709A800880D990968BC
:10173000C86003E008A901200870FFE7FFE7FFE7A2
:101740000D996A22012088520D99682288520D99BC
:10175000002048670D99886708A800780EB080BD02
:10176000F369FFCFFFF4FF1100380140004400404F
:1017700000480040004C0040541002400024F40097
:10178000981E000810B586B0089C0490039102A82A
:1017900002700193FFE704980068C069039908404C
:1017A000401A4142484102A90978884266D1FFE7C0
:1017B0000898401C002860D0FFE7FFF759F801990E
:1017C000401A0899884204D8FFE70898002804D1F5
:1017D000FFE705A90320087054E00498006800683A
:1017E0004007002848D5FFE70398802844D0FFE74A
:1017F0000398402840D0FFE704980068C06908219A
:101800000840C008012816D1FFE7049801680820A5
:10181000009008620498FFF7A1FD009804999022B7
:101820008850FFE70499842200208854FFE705A927
:101830000120087026E004980068C0690121C902EF
:101840000840C00A012816D1FFE70498016801206A
:10185000C00208620498FFF781FD049990222020BD
:101860008850FFE70499842200208854FFE705A9E7
:101870000320087006E0FFE7FFE78CE705A90020DA
:101880000870FFE705A8007806B010BD70B582B0FB
:10189000024601A80270009100214056002816D48B
:1018A000FFE7002401A908570322D3431840174A31
:1018B000805809578C07E50EFF24AC40A043009CDC
:1018C000A401E4B2AC402043194088501AE001A9B9
:1018D00008780F24204008380322D34318400A4ACE
:1018E0008058002549578D07EE0EFF25B540A843C7
:1018F000009DAD01EDB2B5402843214008391940A3
:101900008850FFE702B070BD1CED00E000E400E08D
:1019100082B06C49086801221043086034490868A5
:101920001205104308600520010708680322904350
:1019300008600868104308602E480068C007002847
:101940000ED0FFE72B490868022210430860FFE72A
:1019500028480068C007002801D0FFE7F8E7FFE744
:1019600024490868012212071043086000200090F3
:10197000FFE70098632805DCFFE7FFE70098401CBD
:101980000090F6E71B4908680122D207104308605F
:10199000FFE718480068C00F002801D0FFE7F8E70C
:1019A0001549086801225303184308601349086861
:1019B0000723184308601249086810430860174954
:1019C00008681D23184308600A4908681043086026
:1019D000FFE712480068C007002801D1FFE7F8E7D9
:1019E0000449086804221043086002B07047C046EA
:1019F00040100240082401400C24014014240140FE
:101A000028240140FFE7054800684007002801D46A
:101A1000FFE7F8E70248006880B270470024014001
:101A20004024014080B582B0FFF7ECFF014601A8D9
:101A300001800088FEF770FD044900F09DF904491B
:101A4000FEF770FC0090009802B080BD3333534025
:101A500000F07F4580B582B0FFF7E4FF0190019868
:101A6000054900F089F9FEF70DFD01466846018041
:101A7000008802B080BDC04600007A441149086861
:101A80000322104308600522110708680F231B0476
:101A900098430860086812041043086008683F22F1
:101AA0009202904308600868152292021043086071
:101AB00005490868054A104008600868044A104350
:101AC000086070473410024000040050FCF3FFFF30
:101AD0000104000080B582B000F04AF86946002099
:101AE0000880FFE76846008803283ADCFFE71E49C4
:101AF000086820229043086001A900200880FFE7C1
:101B000001A800881F2821DCFFE701A80078C00792
:101B1000002805D0FFE701200002144908600FE00B
:101B20006846008841002348405A01A909884908AD
:101B300088400121C903084080090C490860FFE77B
:101B4000FFE70198401C01A90880D9E70649086809
:101B5000202210430860FFE70098401C6946088077
:101B6000C0E702B080BDC04614040050140000500D
:101B700080B582B000F072F801A900200870FFE77C
:101B800001A80078032810DCFFE701A803785A00B9
:101B90007648805A0649C95C084306498852FFE7DF
:101BA0000198401C01A90870EAE702B080BDC04658
:101BB000B01E00080C01002080B582B0002001900A
:101BC0007D204002FFF7F0F9FFF7A2FEFFF7A6F92C
:101BD000FFF754FFFFE70A4800881E2808D1FFE7F7
:101BE000FFF738FF69460880054900200880FFE7B5
:101BF0006846008800F006F8FFF76CFFEBE7C04688
:101C00001401002010B586B005A9088004A90020A1
:101C10000880FFE704A8008803281DDCFFE705A86B
:101C2000029000880A210191FEF7C2FA02980A4642
:101C3000019903AB1A80039A04AB1B885C004D4BDF
:101C40001A530088FEF7B4FA02990880FFE7049857
:101C5000401C04A90880DDE706B010BD82B001A9D0
:101C600000200880FFE701A80088032876DCFFE752
:101C700001A8008841003F48405A401E00900828B3
:101C80005ED80098810001A040588746B11C00082A
:101C9000C11C0008D11C0008E11C0008F11C000850
:101CA000011D0008111D0008211D0008311D00083C
:101CB00001A8008842002D49F9200002885247E01F
:101CC00001A80088420029492920800288523FE06B
:101CD00001A80088420025490B200003885237E004
:101CE00001A80088420021499920000288522FE073
:101CF00001A8008842001D4949204002885227E07F
:101D000001A80088420019494120400288521FE082
:101D100001A80088420015491F20C002885217E020
:101D200001A80088420011490120C00388520FE039
:101D300001A8008842000D4909200003885207E0ED
:101D400001A8008842000949032080038852FFE768
:101D5000FFE70198401C01A9088084E70349C8886F
:101D6000034A8018C88002B07047C046FC000020BB
:101D70000080FFFF0401002070B5420064414B0069
:101D80005C41120E39D01B0E38D0FF2A3CD0FF2BFD
:101D90003AD0D2187F3A40024902400A490A45180F
:101DA000ED0106004E43000A090A48430104731A74
:101DB0004019190C4318990F04D05B0801214907F9
:101DC0005B1A521CD80904D3401CF50301D19D06AF
:101DD00007D0FF2A08D2D50506D0E40720434019D2
:101DE00070BD0125A843F4E7002A01DCE00770BDBF
:101DF0002402FF202043C00570BD1B0EFF2A03D024
:101E0000FF2B01D0E00770BDFF2636064500B54226
:101E100006D84D00B54203D8D218FF2A00D0E7E714
:101E2000004870BD0000C07F8182838485868788DA
:101E3000898B8C8D8E8F919293959697999A9C9D74
:101E40009FA0A2A3A5A7A8AAACAEB0B2B3B5B7B9DC
:101E5000BCBEC0C2C5C7C9CCCED1D4D7D9DCDFE2A5
:101E6000E6E9ECF0F3F7FAFE0000000000000000E5
:101E7000000000000000000001000000020000005F
:101E8000030000000400000008040204080101012E
:101E90000101010307010000010002000400060027
:101EA00008000A000C001000200040008000000123
:101EB00008040201D81E00080000002008000000ED
:101EC00014010008E01E00080800002018070000A8
:101ED00034010008000000000024F40000000000AD
:04000005080000B936
:00000001FF
